{
  "_format": "hh-sol-artifact-1",
  "contractName": "CryptoDevs",
  "sourceName": "contracts/CryptoDevs.sol",
  "abi": [
    {
      "inputs": [
        {
          "internalType": "string",
          "name": "baseURI",
          "type": "string"
        },
        {
          "internalType": "address",
          "name": "whitelistContract",
          "type": "address"
        }
      ],
      "stateMutability": "nonpayable",
      "type": "constructor"
    },
    {
      "anonymous": false,
      "inputs": [
        {
          "indexed": true,
          "internalType": "address",
          "name": "owner",
          "type": "address"
        },
        {
          "indexed": true,
          "internalType": "address",
          "name": "approved",
          "type": "address"
        },
        {
          "indexed": true,
          "internalType": "uint256",
          "name": "tokenId",
          "type": "uint256"
        }
      ],
      "name": "Approval",
      "type": "event"
    },
    {
      "anonymous": false,
      "inputs": [
        {
          "indexed": true,
          "internalType": "address",
          "name": "owner",
          "type": "address"
        },
        {
          "indexed": true,
          "internalType": "address",
          "name": "operator",
          "type": "address"
        },
        {
          "indexed": false,
          "internalType": "bool",
          "name": "approved",
          "type": "bool"
        }
      ],
      "name": "ApprovalForAll",
      "type": "event"
    },
    {
      "anonymous": false,
      "inputs": [
        {
          "indexed": true,
          "internalType": "address",
          "name": "previousOwner",
          "type": "address"
        },
        {
          "indexed": true,
          "internalType": "address",
          "name": "newOwner",
          "type": "address"
        }
      ],
      "name": "OwnershipTransferred",
      "type": "event"
    },
    {
      "anonymous": false,
      "inputs": [
        {
          "indexed": true,
          "internalType": "address",
          "name": "from",
          "type": "address"
        },
        {
          "indexed": true,
          "internalType": "address",
          "name": "to",
          "type": "address"
        },
        {
          "indexed": true,
          "internalType": "uint256",
          "name": "tokenId",
          "type": "uint256"
        }
      ],
      "name": "Transfer",
      "type": "event"
    },
    {
      "stateMutability": "payable",
      "type": "fallback"
    },
    {
      "inputs": [],
      "name": "_paused",
      "outputs": [
        {
          "internalType": "bool",
          "name": "",
          "type": "bool"
        }
      ],
      "stateMutability": "view",
      "type": "function"
    },
    {
      "inputs": [],
      "name": "_price",
      "outputs": [
        {
          "internalType": "uint256",
          "name": "",
          "type": "uint256"
        }
      ],
      "stateMutability": "view",
      "type": "function"
    },
    {
      "inputs": [
        {
          "internalType": "address",
          "name": "to",
          "type": "address"
        },
        {
          "internalType": "uint256",
          "name": "tokenId",
          "type": "uint256"
        }
      ],
      "name": "approve",
      "outputs": [],
      "stateMutability": "nonpayable",
      "type": "function"
    },
    {
      "inputs": [
        {
          "internalType": "address",
          "name": "owner",
          "type": "address"
        }
      ],
      "name": "balanceOf",
      "outputs": [
        {
          "internalType": "uint256",
          "name": "",
          "type": "uint256"
        }
      ],
      "stateMutability": "view",
      "type": "function"
    },
    {
      "inputs": [
        {
          "internalType": "uint256",
          "name": "tokenId",
          "type": "uint256"
        }
      ],
      "name": "getApproved",
      "outputs": [
        {
          "internalType": "address",
          "name": "",
          "type": "address"
        }
      ],
      "stateMutability": "view",
      "type": "function"
    },
    {
      "inputs": [
        {
          "internalType": "address",
          "name": "owner",
          "type": "address"
        },
        {
          "internalType": "address",
          "name": "operator",
          "type": "address"
        }
      ],
      "name": "isApprovedForAll",
      "outputs": [
        {
          "internalType": "bool",
          "name": "",
          "type": "bool"
        }
      ],
      "stateMutability": "view",
      "type": "function"
    },
    {
      "inputs": [],
      "name": "maxTokenIds",
      "outputs": [
        {
          "internalType": "uint256",
          "name": "",
          "type": "uint256"
        }
      ],
      "stateMutability": "view",
      "type": "function"
    },
    {
      "inputs": [],
      "name": "mint",
      "outputs": [],
      "stateMutability": "payable",
      "type": "function"
    },
    {
      "inputs": [],
      "name": "name",
      "outputs": [
        {
          "internalType": "string",
          "name": "",
          "type": "string"
        }
      ],
      "stateMutability": "view",
      "type": "function"
    },
    {
      "inputs": [],
      "name": "owner",
      "outputs": [
        {
          "internalType": "address",
          "name": "",
          "type": "address"
        }
      ],
      "stateMutability": "view",
      "type": "function"
    },
    {
      "inputs": [
        {
          "internalType": "uint256",
          "name": "tokenId",
          "type": "uint256"
        }
      ],
      "name": "ownerOf",
      "outputs": [
        {
          "internalType": "address",
          "name": "",
          "type": "address"
        }
      ],
      "stateMutability": "view",
      "type": "function"
    },
    {
      "inputs": [],
      "name": "presaleEnded",
      "outputs": [
        {
          "internalType": "uint256",
          "name": "",
          "type": "uint256"
        }
      ],
      "stateMutability": "view",
      "type": "function"
    },
    {
      "inputs": [],
      "name": "presaleMint",
      "outputs": [],
      "stateMutability": "payable",
      "type": "function"
    },
    {
      "inputs": [],
      "name": "presaleStarted",
      "outputs": [
        {
          "internalType": "bool",
          "name": "",
          "type": "bool"
        }
      ],
      "stateMutability": "view",
      "type": "function"
    },
    {
      "inputs": [],
      "name": "renounceOwnership",
      "outputs": [],
      "stateMutability": "nonpayable",
      "type": "function"
    },
    {
      "inputs": [
        {
          "internalType": "address",
          "name": "from",
          "type": "address"
        },
        {
          "internalType": "address",
          "name": "to",
          "type": "address"
        },
        {
          "internalType": "uint256",
          "name": "tokenId",
          "type": "uint256"
        }
      ],
      "name": "safeTransferFrom",
      "outputs": [],
      "stateMutability": "nonpayable",
      "type": "function"
    },
    {
      "inputs": [
        {
          "internalType": "address",
          "name": "from",
          "type": "address"
        },
        {
          "internalType": "address",
          "name": "to",
          "type": "address"
        },
        {
          "internalType": "uint256",
          "name": "tokenId",
          "type": "uint256"
        },
        {
          "internalType": "bytes",
          "name": "data",
          "type": "bytes"
        }
      ],
      "name": "safeTransferFrom",
      "outputs": [],
      "stateMutability": "nonpayable",
      "type": "function"
    },
    {
      "inputs": [
        {
          "internalType": "address",
          "name": "operator",
          "type": "address"
        },
        {
          "internalType": "bool",
          "name": "approved",
          "type": "bool"
        }
      ],
      "name": "setApprovalForAll",
      "outputs": [],
      "stateMutability": "nonpayable",
      "type": "function"
    },
    {
      "inputs": [
        {
          "internalType": "bool",
          "name": "val",
          "type": "bool"
        }
      ],
      "name": "setPaused",
      "outputs": [],
      "stateMutability": "nonpayable",
      "type": "function"
    },
    {
      "inputs": [],
      "name": "startPresale",
      "outputs": [],
      "stateMutability": "nonpayable",
      "type": "function"
    },
    {
      "inputs": [
        {
          "internalType": "bytes4",
          "name": "interfaceId",
          "type": "bytes4"
        }
      ],
      "name": "supportsInterface",
      "outputs": [
        {
          "internalType": "bool",
          "name": "",
          "type": "bool"
        }
      ],
      "stateMutability": "view",
      "type": "function"
    },
    {
      "inputs": [],
      "name": "symbol",
      "outputs": [
        {
          "internalType": "string",
          "name": "",
          "type": "string"
        }
      ],
      "stateMutability": "view",
      "type": "function"
    },
    {
      "inputs": [
        {
          "internalType": "uint256",
          "name": "index",
          "type": "uint256"
        }
      ],
      "name": "tokenByIndex",
      "outputs": [
        {
          "internalType": "uint256",
          "name": "",
          "type": "uint256"
        }
      ],
      "stateMutability": "view",
      "type": "function"
    },
    {
      "inputs": [],
      "name": "tokenIds",
      "outputs": [
        {
          "internalType": "uint256",
          "name": "",
          "type": "uint256"
        }
      ],
      "stateMutability": "view",
      "type": "function"
    },
    {
      "inputs": [
        {
          "internalType": "address",
          "name": "owner",
          "type": "address"
        },
        {
          "internalType": "uint256",
          "name": "index",
          "type": "uint256"
        }
      ],
      "name": "tokenOfOwnerByIndex",
      "outputs": [
        {
          "internalType": "uint256",
          "name": "",
          "type": "uint256"
        }
      ],
      "stateMutability": "view",
      "type": "function"
    },
    {
      "inputs": [
        {
          "internalType": "uint256",
          "name": "tokenId",
          "type": "uint256"
        }
      ],
      "name": "tokenURI",
      "outputs": [
        {
          "internalType": "string",
          "name": "",
          "type": "string"
        }
      ],
      "stateMutability": "view",
      "type": "function"
    },
    {
      "inputs": [],
      "name": "totalSupply",
      "outputs": [
        {
          "internalType": "uint256",
          "name": "",
          "type": "uint256"
        }
      ],
      "stateMutability": "view",
      "type": "function"
    },
    {
      "inputs": [
        {
          "internalType": "address",
          "name": "from",
          "type": "address"
        },
        {
          "internalType": "address",
          "name": "to",
          "type": "address"
        },
        {
          "internalType": "uint256",
          "name": "tokenId",
          "type": "uint256"
        }
      ],
      "name": "transferFrom",
      "outputs": [],
      "stateMutability": "nonpayable",
      "type": "function"
    },
    {
      "inputs": [
        {
          "internalType": "address",
          "name": "newOwner",
          "type": "address"
        }
      ],
      "name": "transferOwnership",
      "outputs": [],
      "stateMutability": "nonpayable",
      "type": "function"
    },
    {
      "inputs": [],
      "name": "withdraw",
      "outputs": [],
      "stateMutability": "nonpayable",
      "type": "function"
    },
    {
      "stateMutability": "payable",
      "type": "receive"
    }
  ],
  "bytecode": "0x60806040526509184e72a000600c556014600e553480156200002057600080fd5b50604051620042b8380380620042b883398181016040528101906200004691906200036f565b6040518060400160405280600b81526020017f43727970746f20446576730000000000000000000000000000000000000000008152506040518060400160405280600281526020017f43440000000000000000000000000000000000000000000000000000000000008152508160009080519060200190620000ca92919062000236565b508060019080519060200190620000e392919062000236565b50505062000106620000fa6200016860201b60201c565b6200017060201b60201c565b81600b90805190602001906200011e92919062000236565b5080601060006101000a81548173ffffffffffffffffffffffffffffffffffffffff021916908373ffffffffffffffffffffffffffffffffffffffff160217905550505062000587565b600033905090565b6000600a60009054906101000a900473ffffffffffffffffffffffffffffffffffffffff16905081600a60006101000a81548173ffffffffffffffffffffffffffffffffffffffff021916908373ffffffffffffffffffffffffffffffffffffffff1602179055508173ffffffffffffffffffffffffffffffffffffffff168173ffffffffffffffffffffffffffffffffffffffff167f8be0079c531659141344cd1fd0a4f28419497f9722a3daafe3b4186f6b6457e060405160405180910390a35050565b828054620002449062000492565b90600052602060002090601f016020900481019282620002685760008555620002b4565b82601f106200028357805160ff1916838001178555620002b4565b82800160010185558215620002b4579182015b82811115620002b357825182559160200191906001019062000296565b5b509050620002c39190620002c7565b5090565b5b80821115620002e2576000816000905550600101620002c8565b5090565b6000620002fd620002f784620003f2565b620003c9565b9050828152602081018484840111156200031657600080fd5b620003238482856200045c565b509392505050565b6000815190506200033c816200056d565b92915050565b600082601f8301126200035457600080fd5b815162000366848260208601620002e6565b91505092915050565b600080604083850312156200038357600080fd5b600083015167ffffffffffffffff8111156200039e57600080fd5b620003ac8582860162000342565b9250506020620003bf858286016200032b565b9150509250929050565b6000620003d5620003e8565b9050620003e38282620004c8565b919050565b6000604051905090565b600067ffffffffffffffff82111562000410576200040f6200052d565b5b6200041b826200055c565b9050602081019050919050565b600062000435826200043c565b9050919050565b600073ffffffffffffffffffffffffffffffffffffffff82169050919050565b60005b838110156200047c5780820151818401526020810190506200045f565b838111156200048c576000848401525b50505050565b60006002820490506001821680620004ab57607f821691505b60208210811415620004c257620004c1620004fe565b5b50919050565b620004d3826200055c565b810181811067ffffffffffffffff82111715620004f557620004f46200052d565b5b80604052505050565b7f4e487b7100000000000000000000000000000000000000000000000000000000600052602260045260246000fd5b7f4e487b7100000000000000000000000000000000000000000000000000000000600052604160045260246000fd5b6000601f19601f8301169050919050565b620005788162000428565b81146200058457600080fd5b50565b613d2180620005976000396000f3fe6080604052600436106101d15760003560e01c80634f6ccce7116100f75780638da5cb5b11610095578063c87b56dd11610064578063c87b56dd1461061a578063e580b2b014610657578063e985e9c514610682578063f2fde38b146106bf576101d8565b80638da5cb5b1461057257806395d89b411461059d578063a22cb465146105c8578063b88d4fde146105f1576101d8565b80636352211e116100d15780636352211e146104b657806370a08231146104f3578063714cff5614610530578063715018a61461055b576101d8565b80634f6ccce71461044457806359533d6c146104815780635f7696211461048b576101d8565b806316c38b3c1161016f57806323b872dd1161013e57806323b872dd1461039e5780632f745c59146103c75780633ccfd60b1461040457806342842e0e1461041b576101d8565b806316c38b3c146102f457806316c61ccc1461031d57806318160ddd14610348578063235b6ea114610373576101d8565b806306fdde03116101ab57806306fdde0314610259578063081812fc14610284578063095ea7b3146102c15780631249c58b146102ea576101d8565b806301ffc9a7146101da57806304549d6f1461021757806304c98b2b14610242576101d8565b366101d857005b005b3480156101e657600080fd5b5061020160048036038101906101fc9190612aeb565b6106e8565b60405161020e919061301e565b60405180910390f35b34801561022357600080fd5b5061022c610762565b604051610239919061301e565b60405180910390f35b34801561024e57600080fd5b50610257610775565b005b34801561026557600080fd5b5061026e6107af565b60405161027b9190613039565b60405180910390f35b34801561029057600080fd5b506102ab60048036038101906102a69190612b3d565b610841565b6040516102b89190612fb7565b60405180910390f35b3480156102cd57600080fd5b506102e860048036038101906102e39190612a5d565b610887565b005b6102f261099f565b005b34801561030057600080fd5b5061031b60048036038101906103169190612a99565b610aff565b005b34801561032957600080fd5b50610332610b24565b60405161033f919061301e565b60405180910390f35b34801561035457600080fd5b5061035d610b37565b60405161036a919061333b565b60405180910390f35b34801561037f57600080fd5b50610388610b44565b604051610395919061333b565b60405180910390f35b3480156103aa57600080fd5b506103c560048036038101906103c09190612957565b610b4a565b005b3480156103d357600080fd5b506103ee60048036038101906103e99190612a5d565b610baa565b6040516103fb919061333b565b60405180910390f35b34801561041057600080fd5b50610419610c4f565b005b34801561042757600080fd5b50610442600480360381019061043d9190612957565b610d19565b005b34801561045057600080fd5b5061046b60048036038101906104669190612b3d565b610d39565b604051610478919061333b565b60405180910390f35b610489610dd0565b005b34801561049757600080fd5b506104a0611019565b6040516104ad919061333b565b60405180910390f35b3480156104c257600080fd5b506104dd60048036038101906104d89190612b3d565b61101f565b6040516104ea9190612fb7565b60405180910390f35b3480156104ff57600080fd5b5061051a600480360381019061051591906128f2565b6110d1565b604051610527919061333b565b60405180910390f35b34801561053c57600080fd5b50610545611189565b604051610552919061333b565b60405180910390f35b34801561056757600080fd5b5061057061118f565b005b34801561057e57600080fd5b506105876111a3565b6040516105949190612fb7565b60405180910390f35b3480156105a957600080fd5b506105b26111cd565b6040516105bf9190613039565b60405180910390f35b3480156105d457600080fd5b506105ef60048036038101906105ea9190612a21565b61125f565b005b3480156105fd57600080fd5b50610618600480360381019061061391906129a6565b611275565b005b34801561062657600080fd5b50610641600480360381019061063c9190612b3d565b6112d7565b60405161064e9190613039565b60405180910390f35b34801561066357600080fd5b5061066c61133f565b604051610679919061333b565b60405180910390f35b34801561068e57600080fd5b506106a960048036038101906106a4919061291b565b611345565b6040516106b6919061301e565b60405180910390f35b3480156106cb57600080fd5b506106e660048036038101906106e191906128f2565b6113d9565b005b60007f780e9d63000000000000000000000000000000000000000000000000000000007bffffffffffffffffffffffffffffffffffffffffffffffffffffffff1916827bffffffffffffffffffffffffffffffffffffffffffffffffffffffff1916148061075b575061075a8261145d565b5b9050919050565b601060149054906101000a900460ff1681565b61077d61153f565b6001601060146101000a81548160ff021916908315150217905550624f1a00426107a791906133fa565b601181905550565b6060600080546107be9061356b565b80601f01602080910402602001604051908101604052809291908181526020018280546107ea9061356b565b80156108375780601f1061080c57610100808354040283529160200191610837565b820191906000526020600020905b81548152906001019060200180831161081a57829003601f168201915b5050505050905090565b600061084c826115bd565b6004600083815260200190815260200160002060009054906101000a900473ffffffffffffffffffffffffffffffffffffffff169050919050565b60006108928261101f565b90508073ffffffffffffffffffffffffffffffffffffffff168373ffffffffffffffffffffffffffffffffffffffff161415610903576040517f08c379a00000000000000000000000000000000000000000000000000000000081526004016108fa9061329b565b60405180910390fd5b8073ffffffffffffffffffffffffffffffffffffffff16610922611608565b73ffffffffffffffffffffffffffffffffffffffff16148061095157506109508161094b611608565b611345565b5b610990576040517f08c379a0000000000000000000000000000000000000000000000000000000008152600401610987906131db565b60405180910390fd5b61099a8383611610565b505050565b600d60009054906101000a900460ff16156109ef576040517f08c379a00000000000000000000000000000000000000000000000000000000081526004016109e69061325b565b60405180910390fd5b601060149054906101000a900460ff168015610a0d57506011544210155b610a4c576040517f08c379a0000000000000000000000000000000000000000000000000000000008152600401610a439061331b565b60405180910390fd5b600e54600f5410610a92576040517f08c379a0000000000000000000000000000000000000000000000000000000008152600401610a89906130bb565b60405180910390fd5b600c54341015610ad7576040517f08c379a0000000000000000000000000000000000000000000000000000000008152600401610ace906132bb565b60405180910390fd5b6001600f6000828254610aea91906133fa565b92505081905550610afd33600f546116c9565b565b610b0761153f565b80600d60006101000a81548160ff02191690831515021790555050565b600d60009054906101000a900460ff1681565b6000600880549050905090565b600c5481565b610b5b610b55611608565b826116e7565b610b9a576040517f08c379a0000000000000000000000000000000000000000000000000000000008152600401610b91906132fb565b60405180910390fd5b610ba583838361177c565b505050565b6000610bb5836110d1565b8210610bf6576040517f08c379a0000000000000000000000000000000000000000000000000000000008152600401610bed9061305b565b60405180910390fd5b600660008473ffffffffffffffffffffffffffffffffffffffff1673ffffffffffffffffffffffffffffffffffffffff168152602001908152602001600020600083815260200190815260200160002054905092915050565b610c5761153f565b6000610c616111a3565b9050600047905060008273ffffffffffffffffffffffffffffffffffffffff1682604051610c8e90612fa2565b60006040518083038185875af1925050503d8060008114610ccb576040519150601f19603f3d011682016040523d82523d6000602084013e610cd0565b606091505b5050905080610d14576040517f08c379a0000000000000000000000000000000000000000000000000000000008152600401610d0b9061315b565b60405180910390fd5b505050565b610d3483838360405180602001604052806000815250611275565b505050565b6000610d43610b37565b8210610d84576040517f08c379a0000000000000000000000000000000000000000000000000000000008152600401610d7b906132db565b60405180910390fd5b60088281548110610dbe577f4e487b7100000000000000000000000000000000000000000000000000000000600052603260045260246000fd5b90600052602060002001549050919050565b600d60009054906101000a900460ff1615610e20576040517f08c379a0000000000000000000000000000000000000000000000000000000008152600401610e179061325b565b60405180910390fd5b601060149054906101000a900460ff168015610e3d575060115442105b610e7c576040517f08c379a0000000000000000000000000000000000000000000000000000000008152600401610e739061313b565b60405180910390fd5b601060009054906101000a900473ffffffffffffffffffffffffffffffffffffffff1673ffffffffffffffffffffffffffffffffffffffff166306c933d8336040518263ffffffff1660e01b8152600401610ed79190612fb7565b60206040518083038186803b158015610eef57600080fd5b505afa158015610f03573d6000803e3d6000fd5b505050506040513d601f19601f82011682018060405250810190610f279190612ac2565b610f66576040517f08c379a0000000000000000000000000000000000000000000000000000000008152600401610f5d9061321b565b60405180910390fd5b600e54600f5410610fac576040517f08c379a0000000000000000000000000000000000000000000000000000000008152600401610fa3906130fb565b60405180910390fd5b600c54341015610ff1576040517f08c379a0000000000000000000000000000000000000000000000000000000008152600401610fe8906132bb565b60405180910390fd5b6001600f600082825461100491906133fa565b9250508190555061101733600f546116c9565b565b600e5481565b6000806002600084815260200190815260200160002060009054906101000a900473ffffffffffffffffffffffffffffffffffffffff169050600073ffffffffffffffffffffffffffffffffffffffff168173ffffffffffffffffffffffffffffffffffffffff1614156110c8576040517f08c379a00000000000000000000000000000000000000000000000000000000081526004016110bf9061327b565b60405180910390fd5b80915050919050565b60008073ffffffffffffffffffffffffffffffffffffffff168273ffffffffffffffffffffffffffffffffffffffff161415611142576040517f08c379a0000000000000000000000000000000000000000000000000000000008152600401611139906131bb565b60405180910390fd5b600360008373ffffffffffffffffffffffffffffffffffffffff1673ffffffffffffffffffffffffffffffffffffffff168152602001908152602001600020549050919050565b600f5481565b61119761153f565b6111a160006119e3565b565b6000600a60009054906101000a900473ffffffffffffffffffffffffffffffffffffffff16905090565b6060600180546111dc9061356b565b80601f01602080910402602001604051908101604052809291908181526020018280546112089061356b565b80156112555780601f1061122a57610100808354040283529160200191611255565b820191906000526020600020905b81548152906001019060200180831161123857829003601f168201915b5050505050905090565b61127161126a611608565b8383611aa9565b5050565b611286611280611608565b836116e7565b6112c5576040517f08c379a00000000000000000000000000000000000000000000000000000000081526004016112bc906132fb565b60405180910390fd5b6112d184848484611c16565b50505050565b60606112e2826115bd565b60006112ec611c72565b9050600081511161130c5760405180602001604052806000815250611337565b8061131684611d04565b604051602001611327929190612f7e565b6040516020818303038152906040525b915050919050565b60115481565b6000600560008473ffffffffffffffffffffffffffffffffffffffff1673ffffffffffffffffffffffffffffffffffffffff16815260200190815260200160002060008373ffffffffffffffffffffffffffffffffffffffff1673ffffffffffffffffffffffffffffffffffffffff16815260200190815260200160002060009054906101000a900460ff16905092915050565b6113e161153f565b600073ffffffffffffffffffffffffffffffffffffffff168173ffffffffffffffffffffffffffffffffffffffff161415611451576040517f08c379a00000000000000000000000000000000000000000000000000000000081526004016114489061309b565b60405180910390fd5b61145a816119e3565b50565b60007f80ac58cd000000000000000000000000000000000000000000000000000000007bffffffffffffffffffffffffffffffffffffffffffffffffffffffff1916827bffffffffffffffffffffffffffffffffffffffffffffffffffffffff1916148061152857507f5b5e139f000000000000000000000000000000000000000000000000000000007bffffffffffffffffffffffffffffffffffffffffffffffffffffffff1916827bffffffffffffffffffffffffffffffffffffffffffffffffffffffff1916145b80611538575061153782611eb1565b5b9050919050565b611547611608565b73ffffffffffffffffffffffffffffffffffffffff166115656111a3565b73ffffffffffffffffffffffffffffffffffffffff16146115bb576040517f08c379a00000000000000000000000000000000000000000000000000000000081526004016115b29061323b565b60405180910390fd5b565b6115c681611f1b565b611605576040517f08c379a00000000000000000000000000000000000000000000000000000000081526004016115fc9061327b565b60405180910390fd5b50565b600033905090565b816004600083815260200190815260200160002060006101000a81548173ffffffffffffffffffffffffffffffffffffffff021916908373ffffffffffffffffffffffffffffffffffffffff160217905550808273ffffffffffffffffffffffffffffffffffffffff166116838361101f565b73ffffffffffffffffffffffffffffffffffffffff167f8c5be1e5ebec7d5bd14f71427d1e84f3dd0314c0f7b2291e5b200ac8c7c3b92560405160405180910390a45050565b6116e3828260405180602001604052806000815250611f87565b5050565b6000806116f38361101f565b90508073ffffffffffffffffffffffffffffffffffffffff168473ffffffffffffffffffffffffffffffffffffffff16148061173557506117348185611345565b5b8061177357508373ffffffffffffffffffffffffffffffffffffffff1661175b84610841565b73ffffffffffffffffffffffffffffffffffffffff16145b91505092915050565b8273ffffffffffffffffffffffffffffffffffffffff1661179c8261101f565b73ffffffffffffffffffffffffffffffffffffffff16146117f2576040517f08c379a00000000000000000000000000000000000000000000000000000000081526004016117e9906130db565b60405180910390fd5b600073ffffffffffffffffffffffffffffffffffffffff168273ffffffffffffffffffffffffffffffffffffffff161415611862576040517f08c379a00000000000000000000000000000000000000000000000000000000081526004016118599061317b565b60405180910390fd5b61186d838383611fe2565b611878600082611610565b6001600360008573ffffffffffffffffffffffffffffffffffffffff1673ffffffffffffffffffffffffffffffffffffffff16815260200190815260200160002060008282546118c89190613481565b925050819055506001600360008473ffffffffffffffffffffffffffffffffffffffff1673ffffffffffffffffffffffffffffffffffffffff168152602001908152602001600020600082825461191f91906133fa565b92505081905550816002600083815260200190815260200160002060006101000a81548173ffffffffffffffffffffffffffffffffffffffff021916908373ffffffffffffffffffffffffffffffffffffffff160217905550808273ffffffffffffffffffffffffffffffffffffffff168473ffffffffffffffffffffffffffffffffffffffff167fddf252ad1be2c89b69c2b068fc378daa952ba7f163c4a11628f55a4df523b3ef60405160405180910390a46119de8383836120f6565b505050565b6000600a60009054906101000a900473ffffffffffffffffffffffffffffffffffffffff16905081600a60006101000a81548173ffffffffffffffffffffffffffffffffffffffff021916908373ffffffffffffffffffffffffffffffffffffffff1602179055508173ffffffffffffffffffffffffffffffffffffffff168173ffffffffffffffffffffffffffffffffffffffff167f8be0079c531659141344cd1fd0a4f28419497f9722a3daafe3b4186f6b6457e060405160405180910390a35050565b8173ffffffffffffffffffffffffffffffffffffffff168373ffffffffffffffffffffffffffffffffffffffff161415611b18576040517f08c379a0000000000000000000000000000000000000000000000000000000008152600401611b0f9061319b565b60405180910390fd5b80600560008573ffffffffffffffffffffffffffffffffffffffff1673ffffffffffffffffffffffffffffffffffffffff16815260200190815260200160002060008473ffffffffffffffffffffffffffffffffffffffff1673ffffffffffffffffffffffffffffffffffffffff16815260200190815260200160002060006101000a81548160ff0219169083151502179055508173ffffffffffffffffffffffffffffffffffffffff168373ffffffffffffffffffffffffffffffffffffffff167f17307eab39ab6107e8899845ad3d59bd9653f200f220920489ca2b5937696c3183604051611c09919061301e565b60405180910390a3505050565b611c2184848461177c565b611c2d848484846120fb565b611c6c576040517f08c379a0000000000000000000000000000000000000000000000000000000008152600401611c639061307b565b60405180910390fd5b50505050565b6060600b8054611c819061356b565b80601f0160208091040260200160405190810160405280929190818152602001828054611cad9061356b565b8015611cfa5780601f10611ccf57610100808354040283529160200191611cfa565b820191906000526020600020905b815481529060010190602001808311611cdd57829003601f168201915b5050505050905090565b60606000821415611d4c576040518060400160405280600181526020017f30000000000000000000000000000000000000000000000000000000000000008152509050611eac565b600082905060005b60008214611d7e578080611d67906135ce565b915050600a82611d779190613450565b9150611d54565b60008167ffffffffffffffff811115611dc0577f4e487b7100000000000000000000000000000000000000000000000000000000600052604160045260246000fd5b6040519080825280601f01601f191660200182016040528015611df25781602001600182028036833780820191505090505b5090505b60008514611ea557600182611e0b9190613481565b9150600a85611e1a9190613617565b6030611e2691906133fa565b60f81b818381518110611e62577f4e487b7100000000000000000000000000000000000000000000000000000000600052603260045260246000fd5b60200101907effffffffffffffffffffffffffffffffffffffffffffffffffffffffffffff1916908160001a905350600a85611e9e9190613450565b9450611df6565b8093505050505b919050565b60007f01ffc9a7000000000000000000000000000000000000000000000000000000007bffffffffffffffffffffffffffffffffffffffffffffffffffffffff1916827bffffffffffffffffffffffffffffffffffffffffffffffffffffffff1916149050919050565b60008073ffffffffffffffffffffffffffffffffffffffff166002600084815260200190815260200160002060009054906101000a900473ffffffffffffffffffffffffffffffffffffffff1673ffffffffffffffffffffffffffffffffffffffff1614159050919050565b611f918383612292565b611f9e60008484846120fb565b611fdd576040517f08c379a0000000000000000000000000000000000000000000000000000000008152600401611fd49061307b565b60405180910390fd5b505050565b611fed83838361246c565b600073ffffffffffffffffffffffffffffffffffffffff168373ffffffffffffffffffffffffffffffffffffffff1614156120305761202b81612471565b61206f565b8173ffffffffffffffffffffffffffffffffffffffff168373ffffffffffffffffffffffffffffffffffffffff161461206e5761206d83826124ba565b5b5b600073ffffffffffffffffffffffffffffffffffffffff168273ffffffffffffffffffffffffffffffffffffffff1614156120b2576120ad81612627565b6120f1565b8273ffffffffffffffffffffffffffffffffffffffff168273ffffffffffffffffffffffffffffffffffffffff16146120f0576120ef828261276a565b5b5b505050565b505050565b600061211c8473ffffffffffffffffffffffffffffffffffffffff166127e9565b15612285578373ffffffffffffffffffffffffffffffffffffffff1663150b7a02612145611608565b8786866040518563ffffffff1660e01b81526004016121679493929190612fd2565b602060405180830381600087803b15801561218157600080fd5b505af19250505080156121b257506040513d601f19601f820116820180604052508101906121af9190612b14565b60015b612235573d80600081146121e2576040519150601f19603f3d011682016040523d82523d6000602084013e6121e7565b606091505b5060008151141561222d576040517f08c379a00000000000000000000000000000000000000000000000000000000081526004016122249061307b565b60405180910390fd5b805181602001fd5b63150b7a0260e01b7bffffffffffffffffffffffffffffffffffffffffffffffffffffffff1916817bffffffffffffffffffffffffffffffffffffffffffffffffffffffff19161491505061228a565b600190505b949350505050565b600073ffffffffffffffffffffffffffffffffffffffff168273ffffffffffffffffffffffffffffffffffffffff161415612302576040517f08c379a00000000000000000000000000000000000000000000000000000000081526004016122f9906131fb565b60405180910390fd5b61230b81611f1b565b1561234b576040517f08c379a00000000000000000000000000000000000000000000000000000000081526004016123429061311b565b60405180910390fd5b61235760008383611fe2565b6001600360008473ffffffffffffffffffffffffffffffffffffffff1673ffffffffffffffffffffffffffffffffffffffff16815260200190815260200160002060008282546123a791906133fa565b92505081905550816002600083815260200190815260200160002060006101000a81548173ffffffffffffffffffffffffffffffffffffffff021916908373ffffffffffffffffffffffffffffffffffffffff160217905550808273ffffffffffffffffffffffffffffffffffffffff16600073ffffffffffffffffffffffffffffffffffffffff167fddf252ad1be2c89b69c2b068fc378daa952ba7f163c4a11628f55a4df523b3ef60405160405180910390a4612468600083836120f6565b5050565b505050565b6008805490506009600083815260200190815260200160002081905550600881908060018154018082558091505060019003906000526020600020016000909190919091505550565b600060016124c7846110d1565b6124d19190613481565b90506000600760008481526020019081526020016000205490508181146125b6576000600660008673ffffffffffffffffffffffffffffffffffffffff1673ffffffffffffffffffffffffffffffffffffffff168152602001908152602001600020600084815260200190815260200160002054905080600660008773ffffffffffffffffffffffffffffffffffffffff1673ffffffffffffffffffffffffffffffffffffffff168152602001908152602001600020600084815260200190815260200160002081905550816007600083815260200190815260200160002081905550505b6007600084815260200190815260200160002060009055600660008573ffffffffffffffffffffffffffffffffffffffff1673ffffffffffffffffffffffffffffffffffffffff16815260200190815260200160002060008381526020019081526020016000206000905550505050565b6000600160088054905061263b9190613481565b9050600060096000848152602001908152602001600020549050600060088381548110612691577f4e487b7100000000000000000000000000000000000000000000000000000000600052603260045260246000fd5b9060005260206000200154905080600883815481106126d9577f4e487b7100000000000000000000000000000000000000000000000000000000600052603260045260246000fd5b90600052602060002001819055508160096000838152602001908152602001600020819055506009600085815260200190815260200160002060009055600880548061274e577f4e487b7100000000000000000000000000000000000000000000000000000000600052603160045260246000fd5b6001900381819060005260206000200160009055905550505050565b6000612775836110d1565b905081600660008573ffffffffffffffffffffffffffffffffffffffff1673ffffffffffffffffffffffffffffffffffffffff168152602001908152602001600020600083815260200190815260200160002081905550806007600084815260200190815260200160002081905550505050565b6000808273ffffffffffffffffffffffffffffffffffffffff163b119050919050565b600061281f61281a8461337b565b613356565b90508281526020810184848401111561283757600080fd5b612842848285613529565b509392505050565b60008135905061285981613c8f565b92915050565b60008135905061286e81613ca6565b92915050565b60008151905061288381613ca6565b92915050565b60008135905061289881613cbd565b92915050565b6000815190506128ad81613cbd565b92915050565b600082601f8301126128c457600080fd5b81356128d484826020860161280c565b91505092915050565b6000813590506128ec81613cd4565b92915050565b60006020828403121561290457600080fd5b60006129128482850161284a565b91505092915050565b6000806040838503121561292e57600080fd5b600061293c8582860161284a565b925050602061294d8582860161284a565b9150509250929050565b60008060006060848603121561296c57600080fd5b600061297a8682870161284a565b935050602061298b8682870161284a565b925050604061299c868287016128dd565b9150509250925092565b600080600080608085870312156129bc57600080fd5b60006129ca8782880161284a565b94505060206129db8782880161284a565b93505060406129ec878288016128dd565b925050606085013567ffffffffffffffff811115612a0957600080fd5b612a15878288016128b3565b91505092959194509250565b60008060408385031215612a3457600080fd5b6000612a428582860161284a565b9250506020612a538582860161285f565b9150509250929050565b60008060408385031215612a7057600080fd5b6000612a7e8582860161284a565b9250506020612a8f858286016128dd565b9150509250929050565b600060208284031215612aab57600080fd5b6000612ab98482850161285f565b91505092915050565b600060208284031215612ad457600080fd5b6000612ae284828501612874565b91505092915050565b600060208284031215612afd57600080fd5b6000612b0b84828501612889565b91505092915050565b600060208284031215612b2657600080fd5b6000612b348482850161289e565b91505092915050565b600060208284031215612b4f57600080fd5b6000612b5d848285016128dd565b91505092915050565b612b6f816134b5565b82525050565b612b7e816134c7565b82525050565b6000612b8f826133ac565b612b9981856133c2565b9350612ba9818560208601613538565b612bb281613704565b840191505092915050565b6000612bc8826133b7565b612bd281856133de565b9350612be2818560208601613538565b612beb81613704565b840191505092915050565b6000612c01826133b7565b612c0b81856133ef565b9350612c1b818560208601613538565b80840191505092915050565b6000612c34602b836133de565b9150612c3f82613715565b604082019050919050565b6000612c576032836133de565b9150612c6282613764565b604082019050919050565b6000612c7a6026836133de565b9150612c85826137b3565b604082019050919050565b6000612c9d6021836133de565b9150612ca882613802565b604082019050919050565b6000612cc06025836133de565b9150612ccb82613851565b604082019050919050565b6000612ce36023836133de565b9150612cee826138a0565b604082019050919050565b6000612d06601c836133de565b9150612d11826138ef565b602082019050919050565b6000612d296016836133de565b9150612d3482613918565b602082019050919050565b6000612d4c6014836133de565b9150612d5782613941565b602082019050919050565b6000612d6f6024836133de565b9150612d7a8261396a565b604082019050919050565b6000612d926019836133de565b9150612d9d826139b9565b602082019050919050565b6000612db56029836133de565b9150612dc0826139e2565b604082019050919050565b6000612dd8603e836133de565b9150612de382613a31565b604082019050919050565b6000612dfb6020836133de565b9150612e0682613a80565b602082019050919050565b6000612e1e6017836133de565b9150612e2982613aa9565b602082019050919050565b6000612e416020836133de565b9150612e4c82613ad2565b602082019050919050565b6000612e646019836133de565b9150612e6f82613afb565b602082019050919050565b6000612e876018836133de565b9150612e9282613b24565b602082019050919050565b6000612eaa6021836133de565b9150612eb582613b4d565b604082019050919050565b6000612ecd6019836133de565b9150612ed882613b9c565b602082019050919050565b6000612ef06000836133d3565b9150612efb82613bc5565b600082019050919050565b6000612f13602c836133de565b9150612f1e82613bc8565b604082019050919050565b6000612f36602e836133de565b9150612f4182613c17565b604082019050919050565b6000612f596019836133de565b9150612f6482613c66565b602082019050919050565b612f788161351f565b82525050565b6000612f8a8285612bf6565b9150612f968284612bf6565b91508190509392505050565b6000612fad82612ee3565b9150819050919050565b6000602082019050612fcc6000830184612b66565b92915050565b6000608082019050612fe76000830187612b66565b612ff46020830186612b66565b6130016040830185612f6f565b81810360608301526130138184612b84565b905095945050505050565b60006020820190506130336000830184612b75565b92915050565b600060208201905081810360008301526130538184612bbd565b905092915050565b6000602082019050818103600083015261307481612c27565b9050919050565b6000602082019050818103600083015261309481612c4a565b9050919050565b600060208201905081810360008301526130b481612c6d565b9050919050565b600060208201905081810360008301526130d481612c90565b9050919050565b600060208201905081810360008301526130f481612cb3565b9050919050565b6000602082019050818103600083015261311481612cd6565b9050919050565b6000602082019050818103600083015261313481612cf9565b9050919050565b6000602082019050818103600083015261315481612d1c565b9050919050565b6000602082019050818103600083015261317481612d3f565b9050919050565b6000602082019050818103600083015261319481612d62565b9050919050565b600060208201905081810360008301526131b481612d85565b9050919050565b600060208201905081810360008301526131d481612da8565b9050919050565b600060208201905081810360008301526131f481612dcb565b9050919050565b6000602082019050818103600083015261321481612dee565b9050919050565b6000602082019050818103600083015261323481612e11565b9050919050565b6000602082019050818103600083015261325481612e34565b9050919050565b6000602082019050818103600083015261327481612e57565b9050919050565b6000602082019050818103600083015261329481612e7a565b9050919050565b600060208201905081810360008301526132b481612e9d565b9050919050565b600060208201905081810360008301526132d481612ec0565b9050919050565b600060208201905081810360008301526132f481612f06565b9050919050565b6000602082019050818103600083015261331481612f29565b9050919050565b6000602082019050818103600083015261333481612f4c565b9050919050565b60006020820190506133506000830184612f6f565b92915050565b6000613360613371565b905061336c828261359d565b919050565b6000604051905090565b600067ffffffffffffffff821115613396576133956136d5565b5b61339f82613704565b9050602081019050919050565b600081519050919050565b600081519050919050565b600082825260208201905092915050565b600081905092915050565b600082825260208201905092915050565b600081905092915050565b60006134058261351f565b91506134108361351f565b9250827fffffffffffffffffffffffffffffffffffffffffffffffffffffffffffffffff0382111561344557613444613648565b5b828201905092915050565b600061345b8261351f565b91506134668361351f565b92508261347657613475613677565b5b828204905092915050565b600061348c8261351f565b91506134978361351f565b9250828210156134aa576134a9613648565b5b828203905092915050565b60006134c0826134ff565b9050919050565b60008115159050919050565b60007fffffffff0000000000000000000000000000000000000000000000000000000082169050919050565b600073ffffffffffffffffffffffffffffffffffffffff82169050919050565b6000819050919050565b82818337600083830152505050565b60005b8381101561355657808201518184015260208101905061353b565b83811115613565576000848401525b50505050565b6000600282049050600182168061358357607f821691505b60208210811415613597576135966136a6565b5b50919050565b6135a682613704565b810181811067ffffffffffffffff821117156135c5576135c46136d5565b5b80604052505050565b60006135d98261351f565b91507fffffffffffffffffffffffffffffffffffffffffffffffffffffffffffffffff82141561360c5761360b613648565b5b600182019050919050565b60006136228261351f565b915061362d8361351f565b92508261363d5761363c613677565b5b828206905092915050565b7f4e487b7100000000000000000000000000000000000000000000000000000000600052601160045260246000fd5b7f4e487b7100000000000000000000000000000000000000000000000000000000600052601260045260246000fd5b7f4e487b7100000000000000000000000000000000000000000000000000000000600052602260045260246000fd5b7f4e487b7100000000000000000000000000000000000000000000000000000000600052604160045260246000fd5b6000601f19601f8301169050919050565b7f455243373231456e756d657261626c653a206f776e657220696e646578206f7560008201527f74206f6620626f756e6473000000000000000000000000000000000000000000602082015250565b7f4552433732313a207472616e7366657220746f206e6f6e20455243373231526560008201527f63656976657220696d706c656d656e7465720000000000000000000000000000602082015250565b7f4f776e61626c653a206e6577206f776e657220697320746865207a65726f206160008201527f6464726573730000000000000000000000000000000000000000000000000000602082015250565b7f457863656564206d6178696d756d2043727970746f204465767320737570706c60008201527f7900000000000000000000000000000000000000000000000000000000000000602082015250565b7f4552433732313a207472616e736665722066726f6d20696e636f72726563742060008201527f6f776e6572000000000000000000000000000000000000000000000000000000602082015250565b7f4578636565646564206d6178696d756d2043727970746f20446576732073757060008201527f706c790000000000000000000000000000000000000000000000000000000000602082015250565b7f4552433732313a20746f6b656e20616c7265616479206d696e74656400000000600082015250565b7f50726573616c65206973206e6f742072756e6e696e6700000000000000000000600082015250565b7f4661696c656420746f2073656e64204574686572000000000000000000000000600082015250565b7f4552433732313a207472616e7366657220746f20746865207a65726f2061646460008201527f7265737300000000000000000000000000000000000000000000000000000000602082015250565b7f4552433732313a20617070726f766520746f2063616c6c657200000000000000600082015250565b7f4552433732313a2061646472657373207a65726f206973206e6f74206120766160008201527f6c6964206f776e65720000000000000000000000000000000000000000000000602082015250565b7f4552433732313a20617070726f76652063616c6c6572206973206e6f7420746f60008201527f6b656e206f776e6572206e6f7220617070726f76656420666f7220616c6c0000602082015250565b7f4552433732313a206d696e7420746f20746865207a65726f2061646472657373600082015250565b7f596f7520617265206e6f742077686974656c6973746564000000000000000000600082015250565b7f4f776e61626c653a2063616c6c6572206973206e6f7420746865206f776e6572600082015250565b7f436f6e74726163742063757272656e746c792070617573656400000000000000600082015250565b7f4552433732313a20696e76616c696420746f6b656e2049440000000000000000600082015250565b7f4552433732313a20617070726f76616c20746f2063757272656e74206f776e6560008201527f7200000000000000000000000000000000000000000000000000000000000000602082015250565b7f45746865722073656e74206973206e6f7420636f727265637400000000000000600082015250565b50565b7f455243373231456e756d657261626c653a20676c6f62616c20696e646578206f60008201527f7574206f6620626f756e64730000000000000000000000000000000000000000602082015250565b7f4552433732313a2063616c6c6572206973206e6f7420746f6b656e206f776e6560008201527f72206e6f7220617070726f766564000000000000000000000000000000000000602082015250565b7f50726573616c6520686173206e6f7420656e6465642079657400000000000000600082015250565b613c98816134b5565b8114613ca357600080fd5b50565b613caf816134c7565b8114613cba57600080fd5b50565b613cc6816134d3565b8114613cd157600080fd5b50565b613cdd8161351f565b8114613ce857600080fd5b5056fea2646970667358221220a0caa1552d2c4537ab9801256dfeb6a204774b22cf78e89f410aa961fde0a3e964736f6c63430008040033",
  "linkReferences": {},
  "deployedLinkReferences": {}
}